:020000040800F2
:10000000680600208901000891010008930100089A
:100010009501000897010008990100080000000000
:100020000000000000000000000000009B0100082C
:100030009D010008000000009F010008A1010008C8
:10004000A3010008A3010008A3010008A301000800
:10005000A3010008A3010008A3010008A3010008F0
:10006000A3010008A3010008A3010008A3010008E0
:10007000A3010008A3010008A3010008A3010008D0
:10008000A3010008A3010008A3010008A3010008C0
:10009000A3010008A3010008A3010008A3010008B0
:1000A000A3010008A3010008A3010008A3010008A0
:1000B000A3010008A3010008A3010008A301000890
:1000C000A3010008A3010008A3010008A301000880
:1000D000A3010008A3010008A3010008A301000870
:1000E000A3010008A3010008A301000800F002F822
:1000F00000F03AF80AA090E8000C82448344AAF188
:100100000107DA4501D100F02FF8AFF2090EBAE885
:100110000F0013F0010F18BFFB1A43F0010318473B
:100120009C060000BC060000103A24BF78C878C1C5
:10013000FAD8520724BF30C830C144BF04680C60ED
:10014000704700000023002400250026103A28BF35
:1001500078C1FBD8520728BF30C148BF0B60704739
:100160001FB51FBD10B510BD00F031F81146FFF7E7
:10017000F7FF00F0FFFA00F04FF803B4FFF7F2FFCB
:1001800003BC00F057F800000948804709480047C1
:10019000FEE7FEE7FEE7FEE7FEE7FEE7FEE7FEE737
:1001A000FEE7FEE704480549054A064B7047000094
:1001B000F9050008ED00000868000020680600202E
:1001C000680200206802002070477047704775463B
:1001D00000F02CF8AE4605006946534620F00700B3
:1001E000854618B020B5FFF7DDFFBDE820404FF091
:1001F00000064FF000074FF000084FF0000B21F011
:100200000701AC46ACE8C009ACE8C009ACE8C009DD
:10021000ACE8C0098D46704710B50446AFF30080C6
:100220002046BDE81040FFF7A8BF00000048704717
:100230000400002001491820ABBEFEE726000200A2
:100240007047000010B501221146074800F0C0F8C1
:10025000042000F07DFA00220121034800F0B8F8E4
:10026000042000F075FA10BD0008014008B50D200B
:10027000ADF8000010208DF8030003208DF8020077
:100280006946084800F010F80220ADF8000004208C
:100290008DF8030003208DF802006946014800F044
:1002A00003F808BD000801402DE9F0410246002591
:1002B0000026002000230024002791F803C00CF042
:1002C0000F0591F803C00CF0100CBCF1000F03D027
:1002D00091F802C04CEA050591F800C0BCF1000F8E
:1002E00031D0146800202BE04FF0010C0CFA00F321
:1002F000B1F800C00CEA03069E4220D183004FF003
:100300000F0C0CFA03F7BC4305FA03FC4CEA040497
:1003100091F803C0BCF1280F06D14FF0010C0CFA84
:1003200000FCC2F814C00AE091F803C0BCF1480F09
:1003300005D14FF0010C0CFA00FCC2F810C0401CB3
:100340000828D1D31460B1F800C0BCF1FF0F34DD30
:10035000546800202EE000F1080C4FF0010808FA64
:100360000CF3B1F800C00CEA03069E4221D18300D1
:100370004FF00F0C0CFA03F7BC4305FA03FC4CEAF0
:10038000040491F803C0BCF1280F05D100F1080C5A
:1003900008FA0CF8C2F8148091F803C0BCF1480FB9
:1003A00007D100F1080C4FF0010808FA0CF8C2F868
:1003B0001080401C0828CED35460BDE8F08102466E
:1003C000002093680B400BB1012000E00020704733
:1003D0000AB1016100E041617047000029B1064A9D
:1003E000D2690243044BDA6104E0034AD2698243D2
:1003F000014BDA61704700000010024029B1064A43
:1004000092690243044B9A6104E0034A9269824371
:10041000014B9A61704700000010024010B50121A5
:100420000420FFF7EBFF01210846FFF7D7FF10BDBF
:1004300010B5002201210948FFF7CAFF0122082157
:100440000648FFF7C5FF002202210448FFF7C0FF5E
:10045000002204210148FFF7BBFF10BD0008014046
:100460002DE9F04704460025A9464FF080080022F8
:1004700008212648FFF7ACFF012000F069F90027AA
:1004800018E004EA080646B1012204211F48FFF7DC
:100490009FFF012000F05CF907E0002204211B48C7
:1004A000FFF796FF012000F053F96006040EFFF7F6
:1004B000C9FE7F1C082FE4DB002719E0012211464A
:1004C0001248FFF785FF012000F042F96806050E8B
:1004D00002210E48FFF773FF08B145F00105002225
:1004E00001210A48FFF774FF012000F031F97F1C59
:1004F000082FE3DB012208210448FFF769FF0120F0
:1005000000F026F92846BDE8F08700000008014009
:1005100010B500F001F810BD0CB50020019000905E
:100520003348006840F480303149086000BF3048EB
:10053000006800F4003000900198401C0190009881
:1005400018B90198B0F5A06FF1D12948006800F4FE
:10055000003010B10120009001E0002000900098D0
:10056000012843D12348006840F010002149086069
:100570000846006820F0070008600846006840F060
:10058000020008601A4840681949486008464068F7
:1005900048600846406840F480604860084640680B
:1005A00020F47C1048600846406840F4E810486039
:1005B0000846006840F08070086000BF0C48006882
:1005C00000F000700028F9D00948406820F00300CE
:1005D000074948600846406840F00200486000BF94
:1005E0000348406800F00C000828F9D10CBD000059
:1005F000001002400020024010B51348006840F08F
:1006000001001149086008464068104908400E4939
:100610004860084600680E4908400B4908600846D3
:10062000006820F4802008600846406820F4FE003E
:1006300048604FF41F008860FFF76AFF4FF00060CA
:100640000449086010BD0000001002400000FFF8DF
:10065000FFFFF6FE08ED00E021B1028842F0010242
:10066000028004E002884FF6FE731A400280704751
:100670000EB50020ADF8060041F61F40ADF80000B1
:100680004FF6FF70ADF804000020ADF80200694697
:100690004FF0804000F00AF801218807FFF7DCFFE7
:1006A0000EBD0146888C7047818470470022028805
:1006B0001D4B98420ED01D4B98420BD0B0F1804F8D
:1006C00008D01B4B984205D01A4B984202D01A4BC7
:1006D000984204D14FF68F731A404B881A43174B38
:1006E000984207D0164B984204D04FF6FF431A4069
:1006F000CB881A4302808B8883850B8803850A4B3D
:1007000098420BD0094B984208D00E4B984205D026
:100710000D4B984202D00D4B984201D10B7A0386C3
:100720000123838270470000002C01400034014007
:100730000004004000080040000C00400010004091
:1007400000140040004001400044014000480140C6
:1007500010B5044600214FF08040FFF7A5FF00BF11
:100760004FF08040FFF79DFF04EB8401B0EB410F99
:10077000F6D310BD1CB50EA103C9CDE90001FFF7EA
:100780004DFEFFF773FDFFF773FFFFF751FE0EE01D
:1007900000240AE01DF80400FFF762FE0649087015
:1007A0004FF47A70FFF7D4FF641C082CF2DBEFE7FC
:1007B0000103090A0F13140000000020DC070008E1
:1007C000000000200400000028010008E0070008E5
:1007D000040000206406000044010008000000003E
:040000050800018965
:00000001FF
